{
  "_format": "hh-sol-artifact-1",
  "contractName": "ECommerce",
  "sourceName": "contracts/ECommerce.sol",
  "abi": [
    {
      "inputs": [],
      "stateMutability": "nonpayable",
      "type": "constructor"
    },
    {
      "anonymous": false,
      "inputs": [
        {
          "indexed": true,
          "internalType": "uint256",
          "name": "purchaseId",
          "type": "uint256"
        },
        {
          "indexed": false,
          "internalType": "uint256",
          "name": "amount",
          "type": "uint256"
        },
        {
          "indexed": true,
          "internalType": "address",
          "name": "buyer",
          "type": "address"
        },
        {
          "indexed": true,
          "internalType": "address",
          "name": "middleman",
          "type": "address"
        }
      ],
      "name": "LoanGiven",
      "type": "event"
    },
    {
      "anonymous": false,
      "inputs": [
        {
          "indexed": true,
          "internalType": "uint256",
          "name": "purchaseId",
          "type": "uint256"
        },
        {
          "indexed": false,
          "internalType": "uint256",
          "name": "amount",
          "type": "uint256"
        },
        {
          "indexed": true,
          "internalType": "address",
          "name": "buyer",
          "type": "address"
        }
      ],
      "name": "LoanRequested",
      "type": "event"
    },
    {
      "anonymous": false,
      "inputs": [
        {
          "indexed": true,
          "internalType": "uint256",
          "name": "id",
          "type": "uint256"
        },
        {
          "indexed": false,
          "internalType": "string",
          "name": "name",
          "type": "string"
        },
        {
          "indexed": false,
          "internalType": "uint256",
          "name": "price",
          "type": "uint256"
        },
        {
          "indexed": true,
          "internalType": "address",
          "name": "seller",
          "type": "address"
        }
      ],
      "name": "ProductAdded",
      "type": "event"
    },
    {
      "anonymous": false,
      "inputs": [
        {
          "indexed": true,
          "internalType": "uint256",
          "name": "purchaseId",
          "type": "uint256"
        }
      ],
      "name": "ProductDelivered",
      "type": "event"
    },
    {
      "anonymous": false,
      "inputs": [
        {
          "indexed": true,
          "internalType": "uint256",
          "name": "productId",
          "type": "uint256"
        },
        {
          "indexed": false,
          "internalType": "string",
          "name": "name",
          "type": "string"
        },
        {
          "indexed": false,
          "internalType": "uint256",
          "name": "price",
          "type": "uint256"
        },
        {
          "indexed": true,
          "internalType": "address",
          "name": "buyer",
          "type": "address"
        }
      ],
      "name": "ProductPurchased",
      "type": "event"
    },
    {
      "inputs": [
        {
          "internalType": "string",
          "name": "_name",
          "type": "string"
        },
        {
          "internalType": "uint256",
          "name": "_price",
          "type": "uint256"
        }
      ],
      "name": "addProduct",
      "outputs": [],
      "stateMutability": "nonpayable",
      "type": "function"
    },
    {
      "inputs": [
        {
          "internalType": "uint256",
          "name": "_purchaseId",
          "type": "uint256"
        }
      ],
      "name": "deliverProduct",
      "outputs": [],
      "stateMutability": "nonpayable",
      "type": "function"
    },
    {
      "inputs": [
        {
          "internalType": "uint256",
          "name": "_purchaseId",
          "type": "uint256"
        }
      ],
      "name": "giveLoan",
      "outputs": [],
      "stateMutability": "nonpayable",
      "type": "function"
    },
    {
      "inputs": [],
      "name": "productIdCounter",
      "outputs": [
        {
          "internalType": "uint256",
          "name": "",
          "type": "uint256"
        }
      ],
      "stateMutability": "view",
      "type": "function"
    },
    {
      "inputs": [
        {
          "internalType": "uint256",
          "name": "",
          "type": "uint256"
        }
      ],
      "name": "products",
      "outputs": [
        {
          "internalType": "uint256",
          "name": "id",
          "type": "uint256"
        },
        {
          "internalType": "string",
          "name": "name",
          "type": "string"
        },
        {
          "internalType": "uint256",
          "name": "price",
          "type": "uint256"
        },
        {
          "internalType": "address",
          "name": "seller",
          "type": "address"
        },
        {
          "internalType": "bool",
          "name": "available",
          "type": "bool"
        }
      ],
      "stateMutability": "view",
      "type": "function"
    },
    {
      "inputs": [],
      "name": "purchaseIdCounter",
      "outputs": [
        {
          "internalType": "uint256",
          "name": "",
          "type": "uint256"
        }
      ],
      "stateMutability": "view",
      "type": "function"
    },
    {
      "inputs": [
        {
          "internalType": "uint256",
          "name": "_productId",
          "type": "uint256"
        }
      ],
      "name": "purchaseProduct",
      "outputs": [],
      "stateMutability": "payable",
      "type": "function"
    },
    {
      "inputs": [
        {
          "internalType": "uint256",
          "name": "",
          "type": "uint256"
        }
      ],
      "name": "purchases",
      "outputs": [
        {
          "internalType": "uint256",
          "name": "productId",
          "type": "uint256"
        },
        {
          "internalType": "address",
          "name": "buyer",
          "type": "address"
        },
        {
          "internalType": "bool",
          "name": "loanRequested",
          "type": "bool"
        },
        {
          "internalType": "bool",
          "name": "loanGiven",
          "type": "bool"
        },
        {
          "internalType": "uint256",
          "name": "loanAmount",
          "type": "uint256"
        }
      ],
      "stateMutability": "view",
      "type": "function"
    },
    {
      "inputs": [
        {
          "internalType": "uint256",
          "name": "_purchaseId",
          "type": "uint256"
        },
        {
          "internalType": "uint256",
          "name": "_amount",
          "type": "uint256"
        }
      ],
      "name": "requestLoan",
      "outputs": [],
      "stateMutability": "nonpayable",
      "type": "function"
    }
  ],
  "bytecode": "0x608060405234801561001057600080fd5b5061196c806100206000396000f3fe6080604052600436106100865760003560e01c80637acc0b20116100595780637acc0b20146101245780638392fe3114610165578063aa452fa6146101a6578063b15247d9146101cf578063c85fd67d146101f857610086565b80631c96fb1f1461008b57806327188ea4146100b4578063342ae8c6146100dd57806338e76a0314610108575b600080fd5b34801561009757600080fd5b506100b260048036038101906100ad9190610cb8565b610223565b005b3480156100c057600080fd5b506100db60048036038101906100d69190610cb8565b610346565b005b3480156100e957600080fd5b506100f2610539565b6040516100ff9190610cf4565b60405180910390f35b610122600480360381019061011d9190610cb8565b61053f565b005b34801561013057600080fd5b5061014b60048036038101906101469190610cb8565b610775565b60405161015c959493929190610dfb565b60405180910390f35b34801561017157600080fd5b5061018c60048036038101906101879190610cb8565b610860565b60405161019d959493929190610e55565b60405180910390f35b3480156101b257600080fd5b506101cd60048036038101906101c89190610ea8565b6108d0565b005b3480156101db57600080fd5b506101f660048036038101906101f1919061101d565b610a88565b005b34801561020457600080fd5b5061020d610c68565b60405161021a9190610cf4565b60405180910390f35b60006001600083815260200190815260200160002090508060010160159054906101000a900460ff1661028b576040517f08c379a0000000000000000000000000000000000000000000000000000000008152600401610282906110c5565b60405180910390fd5b60008060008360000154815260200190815260200160002090508060030160009054906101000a900473ffffffffffffffffffffffffffffffffffffffff1673ffffffffffffffffffffffffffffffffffffffff166108fc82600201549081150290604051600060405180830381858888f19350505050158015610313573d6000803e3d6000fd5b50827f676db0e373ff1071d39d7e4b8f731263eacae499c16b138d9fb88c272d2fd23260405160405180910390a2505050565b60006001600083815260200190815260200160002090508060010160149054906101000a900460ff166103ae576040517f08c379a00000000000000000000000000000000000000000000000000000000081526004016103a590611131565b60405180910390fd5b8060010160159054906101000a900460ff1615610400576040517f08c379a00000000000000000000000000000000000000000000000000000000081526004016103f79061119d565b60405180910390fd5b60008060008360000154815260200190815260200160002090508060030160009054906101000a900473ffffffffffffffffffffffffffffffffffffffff1673ffffffffffffffffffffffffffffffffffffffff166108fc83600201549081150290604051600060405180830381858888f19350505050158015610488573d6000803e3d6000fd5b5060018260010160156101000a81548160ff0219169083151502179055503073ffffffffffffffffffffffffffffffffffffffff168260010160009054906101000a900473ffffffffffffffffffffffffffffffffffffffff1673ffffffffffffffffffffffffffffffffffffffff16847f1104463a3bb205752e3b8cf3753edee6df3266d4ab6a6c24ed459e0de2dfb397856002015460405161052c9190610cf4565b60405180910390a4505050565b60025481565b600080600083815260200190815260200160002090508060030160149054906101000a900460ff166105a6576040517f08c379a000000000000000000000000000000000000000000000000000000000815260040161059d90611209565b60405180910390fd5b80600201543410156105ed576040517f08c379a00000000000000000000000000000000000000000000000000000000081526004016105e490611275565b60405180910390fd5b60036000815480929190610600906112c4565b91905055506040518060a001604052808381526020013373ffffffffffffffffffffffffffffffffffffffff16815260200160001515815260200160001515815260200160008152506001600060035481526020019081526020016000206000820151816000015560208201518160010160006101000a81548173ffffffffffffffffffffffffffffffffffffffff021916908373ffffffffffffffffffffffffffffffffffffffff16021790555060408201518160010160146101000a81548160ff02191690831515021790555060608201518160010160156101000a81548160ff0219169083151502179055506080820151816002015590505060008160030160146101000a81548160ff0219169083151502179055503373ffffffffffffffffffffffffffffffffffffffff16827fa11e47d046e4d3dbc2056861a52aae8c7121c61d1ef01f11a17be988d5ef2f31836001018460020154604051610769929190611405565b60405180910390a35050565b600060205280600052604060002060009150905080600001549080600101805461079e9061133b565b80601f01602080910402602001604051908101604052809291908181526020018280546107ca9061133b565b80156108175780601f106107ec57610100808354040283529160200191610817565b820191906000526020600020905b8154815290600101906020018083116107fa57829003601f168201915b5050505050908060020154908060030160009054906101000a900473ffffffffffffffffffffffffffffffffffffffff16908060030160149054906101000a900460ff16905085565b60016020528060005260406000206000915090508060000154908060010160009054906101000a900473ffffffffffffffffffffffffffffffffffffffff16908060010160149054906101000a900460ff16908060010160159054906101000a900460ff16908060020154905085565b60008111610913576040517f08c379a000000000000000000000000000000000000000000000000000000000815260040161090a906114a7565b60405180910390fd5b60006001600084815260200190815260200160002090508060010160009054906101000a900473ffffffffffffffffffffffffffffffffffffffff1673ffffffffffffffffffffffffffffffffffffffff163373ffffffffffffffffffffffffffffffffffffffff16146109bc576040517f08c379a00000000000000000000000000000000000000000000000000000000081526004016109b390611513565b60405180910390fd5b8060010160149054906101000a900460ff1615610a0e576040517f08c379a0000000000000000000000000000000000000000000000000000000008152600401610a059061157f565b60405180910390fd5b60018160010160146101000a81548160ff0219169083151502179055508181600201819055503373ffffffffffffffffffffffffffffffffffffffff16837ff56c1b7cae7b8c2b75ff8e0df0488212144e7903e941c1c82d7aaee11fea307784604051610a7b9190610cf4565b60405180910390a3505050565b6000825111610acc576040517f08c379a0000000000000000000000000000000000000000000000000000000008152600401610ac3906115eb565b60405180910390fd5b60008111610b0f576040517f08c379a0000000000000000000000000000000000000000000000000000000008152600401610b069061167d565b60405180910390fd5b60026000815480929190610b22906112c4565b91905055506040518060a0016040528060025481526020018381526020018281526020013373ffffffffffffffffffffffffffffffffffffffff168152602001600115158152506000806002548152602001908152602001600020600082015181600001556020820151816001019081610b9c9190611834565b506040820151816002015560608201518160030160006101000a81548173ffffffffffffffffffffffffffffffffffffffff021916908373ffffffffffffffffffffffffffffffffffffffff16021790555060808201518160030160146101000a81548160ff0219169083151502179055509050503373ffffffffffffffffffffffffffffffffffffffff166002547f52402cafb2ecec722b103e8f203f83362148c168659dc96678c2c6850d12dd9f8484604051610c5c929190611906565b60405180910390a35050565b60035481565b6000604051905090565b600080fd5b600080fd5b6000819050919050565b610c9581610c82565b8114610ca057600080fd5b50565b600081359050610cb281610c8c565b92915050565b600060208284031215610cce57610ccd610c78565b5b6000610cdc84828501610ca3565b91505092915050565b610cee81610c82565b82525050565b6000602082019050610d096000830184610ce5565b92915050565b600081519050919050565b600082825260208201905092915050565b60005b83811015610d49578082015181840152602081019050610d2e565b60008484015250505050565b6000601f19601f8301169050919050565b6000610d7182610d0f565b610d7b8185610d1a565b9350610d8b818560208601610d2b565b610d9481610d55565b840191505092915050565b600073ffffffffffffffffffffffffffffffffffffffff82169050919050565b6000610dca82610d9f565b9050919050565b610dda81610dbf565b82525050565b60008115159050919050565b610df581610de0565b82525050565b600060a082019050610e106000830188610ce5565b8181036020830152610e228187610d66565b9050610e316040830186610ce5565b610e3e6060830185610dd1565b610e4b6080830184610dec565b9695505050505050565b600060a082019050610e6a6000830188610ce5565b610e776020830187610dd1565b610e846040830186610dec565b610e916060830185610dec565b610e9e6080830184610ce5565b9695505050505050565b60008060408385031215610ebf57610ebe610c78565b5b6000610ecd85828601610ca3565b9250506020610ede85828601610ca3565b9150509250929050565b600080fd5b600080fd5b7f4e487b7100000000000000000000000000000000000000000000000000000000600052604160045260246000fd5b610f2a82610d55565b810181811067ffffffffffffffff82111715610f4957610f48610ef2565b5b80604052505050565b6000610f5c610c6e565b9050610f688282610f21565b919050565b600067ffffffffffffffff821115610f8857610f87610ef2565b5b610f9182610d55565b9050602081019050919050565b82818337600083830152505050565b6000610fc0610fbb84610f6d565b610f52565b905082815260208101848484011115610fdc57610fdb610eed565b5b610fe7848285610f9e565b509392505050565b600082601f83011261100457611003610ee8565b5b8135611014848260208601610fad565b91505092915050565b6000806040838503121561103457611033610c78565b5b600083013567ffffffffffffffff81111561105257611051610c7d565b5b61105e85828601610fef565b925050602061106f85828601610ca3565b9150509250929050565b7f4c6f616e206e6f7420676976656e207965740000000000000000000000000000600082015250565b60006110af601283610d1a565b91506110ba82611079565b602082019050919050565b600060208201905081810360008301526110de816110a2565b9050919050565b7f4c6f616e206e6f74207265717565737465640000000000000000000000000000600082015250565b600061111b601283610d1a565b9150611126826110e5565b602082019050919050565b6000602082019050818103600083015261114a8161110e565b9050919050565b7f4c6f616e20616c726561647920676976656e0000000000000000000000000000600082015250565b6000611187601283610d1a565b915061119282611151565b602082019050919050565b600060208201905081810360008301526111b68161117a565b9050919050565b7f50726f64756374206e6f7420617661696c61626c650000000000000000000000600082015250565b60006111f3601583610d1a565b91506111fe826111bd565b602082019050919050565b60006020820190508181036000830152611222816111e6565b9050919050565b7f496e73756666696369656e742066756e64730000000000000000000000000000600082015250565b600061125f601283610d1a565b915061126a82611229565b602082019050919050565b6000602082019050818103600083015261128e81611252565b9050919050565b7f4e487b7100000000000000000000000000000000000000000000000000000000600052601160045260246000fd5b60006112cf82610c82565b91507fffffffffffffffffffffffffffffffffffffffffffffffffffffffffffffffff820361130157611300611295565b5b600182019050919050565b7f4e487b7100000000000000000000000000000000000000000000000000000000600052602260045260246000fd5b6000600282049050600182168061135357607f821691505b6020821081036113665761136561130c565b5b50919050565b60008190508160005260206000209050919050565b6000815461138e8161133b565b6113988186610d1a565b945060018216600081146113b357600181146113c9576113fc565b60ff1983168652811515602002860193506113fc565b6113d28561136c565b60005b838110156113f4578154818901526001820191506020810190506113d5565b808801955050505b50505092915050565b6000604082019050818103600083015261141f8185611381565b905061142e6020830184610ce5565b9392505050565b7f4c6f616e20616d6f756e74206d7573742062652067726561746572207468616e60008201527f207a65726f000000000000000000000000000000000000000000000000000000602082015250565b6000611491602583610d1a565b915061149c82611435565b604082019050919050565b600060208201905081810360008301526114c081611484565b9050919050565b7f4f6e6c792062757965722063616e20726571756573742061206c6f616e000000600082015250565b60006114fd601d83610d1a565b9150611508826114c7565b602082019050919050565b6000602082019050818103600083015261152c816114f0565b9050919050565b7f4c6f616e20616c72656164792072657175657374656400000000000000000000600082015250565b6000611569601683610d1a565b915061157482611533565b602082019050919050565b600060208201905081810360008301526115988161155c565b9050919050565b7f50726f64756374206e616d652063616e6e6f7420626520656d70747900000000600082015250565b60006115d5601c83610d1a565b91506115e08261159f565b602082019050919050565b60006020820190508181036000830152611604816115c8565b9050919050565b7f50726f64756374207072696365206d757374206265206772656174657220746860008201527f616e207a65726f00000000000000000000000000000000000000000000000000602082015250565b6000611667602783610d1a565b91506116728261160b565b604082019050919050565b600060208201905081810360008301526116968161165a565b9050919050565b60006020601f8301049050919050565b600082821b905092915050565b6000600883026116ea7fffffffffffffffffffffffffffffffffffffffffffffffffffffffffffffffff826116ad565b6116f486836116ad565b95508019841693508086168417925050509392505050565b6000819050919050565b600061173161172c61172784610c82565b61170c565b610c82565b9050919050565b6000819050919050565b61174b83611716565b61175f61175782611738565b8484546116ba565b825550505050565b600090565b611774611767565b61177f818484611742565b505050565b5b818110156117a35761179860008261176c565b600181019050611785565b5050565b601f8211156117e8576117b98161136c565b6117c28461169d565b810160208510156117d1578190505b6117e56117dd8561169d565b830182611784565b50505b505050565b600082821c905092915050565b600061180b600019846008026117ed565b1980831691505092915050565b600061182483836117fa565b9150826002028217905092915050565b61183d82610d0f565b67ffffffffffffffff81111561185657611855610ef2565b5b611860825461133b565b61186b8282856117a7565b600060209050601f83116001811461189e576000841561188c578287015190505b6118968582611818565b8655506118fe565b601f1984166118ac8661136c565b60005b828110156118d4578489015182556001820191506020850194506020810190506118af565b868310156118f157848901516118ed601f8916826117fa565b8355505b6001600288020188555050505b505050505050565b600060408201905081810360008301526119208185610d66565b905061192f6020830184610ce5565b939250505056fea2646970667358221220e5d83eec2ed1200a9d7cecda3a73debdd7cc29fdb270bd0fc27b639f7005cce964736f6c63430008140033",
  "linkReferences": {},
  "deployedLinkReferences": {}
}